:100000000C9474000C949C000C949C000C94DD04E3
:100010000C94DD040C94DD040C949C000C949C0066
:100020000C949C000C949C000C949C000C949C00E0
:100030000C949C000C949C000C949C000C949C00D0
:100040000C9493040C949C000C9461040C943B0459
:100050000C949C000C949C000C949C000C949C00B0
:100060000C949C000C949C00BA09BD09C909D109E3
:10007000D909E109E909F109F909010A090A110A8D
:10008000190A210A290A310A390A0000000024004D
:1000900027002A00000000080002010000030407F6
:1000A0000000000000000000000000002500280003
:1000B0002B00000000002300260029000404040493
:1000C0000404040402020202020203030303030302
:1000D00001020408102040800102040810200102DF
:1000E000040810205705AE0A11241FBECFEFD8E038
:1000F000DEBFCDBF24E0AAECB2E001C01D92AA3F52
:10010000B207E1F712E0A0E0B1E0E4E3F6E102C0FB
:1001100005900D92AA3CB107D9F710E0C3E7D0E0F3
:1001200004C02197FE010E94EE0AC237D107C9F729
:100130000E944F060C940D0B0C940000CF92DF929E
:10014000EF92FF920F931F93CF93DF936C017A018D
:100150008B01C0E0D0E0CE15DF0589F0D8016D91AC
:100160008D01D601ED91FC910190F081E02DC60149
:100170000995892B11F47E0102C02196ECCFC701AD
:10018000DF91CF911F910F91FF90EF90DF90CF9073
:100190000895FC01918D828D981761F0828DDF01A9
:1001A000A80FB11D5D968C91928D9F5F9F73928F6A
:1001B00090E008958FEF9FEF0895FC01918D828D5F
:1001C000981731F0828DE80FF11D858D90E008952C
:1001D0008FEF9FEF0895FC01918D228D892F90E084
:1001E000805C9F4F821B91098F73992708958BE440
:1001F00093E00E94EB0021E0892B09F420E0822F9C
:100200000895FC01848DDF01A80FB11DA35ABF4FD3
:100210002C91848D90E001968F739927848FA68905
:10022000B7892C93A089B1898C9180648C93938D2C
:10023000848D981306C00288F389E02D80818F7D1C
:1002400080830895EF92FF920F931F93CF93DF93D4
:10025000EC0181E0888F9B8D8C8D981305C0E88917
:10026000F989808185FD24C0F62E0B8D10E00F5F8B
:100270001F4F0F731127E02E8C8DE8120CC00FB6A4
:1002800007FCFACFE889F989808185FFF5CFCE0197
:100290000E940101F1CF8B8DFE01E80FF11DE35AA1
:1002A000FF4FF0820B8FEA89FB898081806207C053
:1002B000EE89FF896083E889F98980818064808381
:1002C00081E090E0DF91CF911F910F91FF90EF902F
:1002D0000895CF93DF93EC01888D8823C9F0EA89D4
:1002E000FB89808185FD05C0A889B9898C9186FD2F
:1002F0000FC00FB607FCF5CF808185FFF2CFA8892C
:10030000B9898C9185FFEDCFCE010E940101E7CF25
:10031000DF91CF91089580E090E0892B29F00E9431
:10032000F70081110C9400000895833081F028F4C7
:10033000813099F08230A1F008958730A9F088309B
:10034000B9F08430D1F4809180008F7D03C080911A
:1003500080008F7780938000089584B58F7702C0E6
:1003600084B58F7D84BD08958091B0008F7703C0E0
:100370008091B0008F7D8093B00008951F93CF933C
:10038000DF93282F30E0F901EC56FF4F8491F901FB
:10039000E053FF4FD491F901E454FF4FC491CC23B3
:1003A000C9F0162F81110E949501EC2FF0E0EE0F9D
:1003B000FF1FE855FF4FA591B4918FB7F894111125
:1003C00005C09C91ED2FE095E92302C0EC91ED2B47
:1003D000EC938FBFDF91CF911F910895CF93DF935F
:1003E00090E0FC01E053FF4F2491FC01E454FF4FE7
:1003F0008491882361F190E0880F991FFC01E657F2
:10040000FF4FC591D491FC01E855FF4FA591B491E0
:10041000611109C09FB7F894888120958223888351
:10042000EC912E230BC0623061F49FB7F8943881B1
:10043000822F809583238883EC912E2B2C939FBF52
:1004400006C08FB7F894E8812E2B28838FBFDF91E9
:10045000CF9108953FB7F89480910F0390911003C6
:10046000A0911103B091120326B5A89B05C02F3FA0
:1004700019F00196A11DB11D3FBFBA2FA92F982FCA
:100480008827820F911DA11DB11DBC01CD0142E045
:10049000660F771F881F991F4A95D1F708958F928D
:1004A0009F92AF92BF92CF92DF92EF92FF926B0139
:1004B0007C010E942A024B015C01C114D104E104B9
:1004C000F104F1F00E942A02DC01CB01881999099C
:1004D000AA09BB09883E9340A105B10570F321E04C
:1004E000C21AD108E108F10888EE880E83E0981E50
:1004F000A11CB11CC114D104E104F10419F7DDCF32
:10050000FF90EF90DF90CF90BF90AF909F908F9033
:1005100008952FB7F89460910B0370910C038091AC
:100520000D0390910E032FBF0895FF920F931F9319
:10053000CF93DF93EC01062F142FF22E86E1E2E039
:10054000F1E0DE01139601900D928A95E1F761E0EA
:10055000802F0E94EE0161E0812F0E94EE0161E098
:100560008F2D0E94EE0160E0802F0E94BE0160E0AE
:10057000812F0E94BE0160E0812F0E94BE0108838E
:100580001983FA82DF91CF911F910F91FF90089507
:1005900020911503309116032817390771F49091B3
:1005A000130380911403981741F0E0911303F0E0D6
:1005B000E653FD4F808190E008958FEF9FEF0895FF
:1005C00008951F93CF93DF93DC015C962D913C91AE
:1005D0005D972115310539F481E090E013969C93E5
:1005E0008E9312973DC05196ED91FC915297509683
:1005F0009C915097892F80951FB75E964C915E977E
:1006000041FB772770F941FD6095F894408177238D
:1006100011F0492B01C048234083E9012197F1F7EC
:1006200048E0508160FF02C0592B01C0582350831D
:10063000E9012197F1F76695415099F7772321F069
:1006400090818923808303C08081982B90831FBF72
:100650005C968D919C915D970197F1F721E030E0D8
:10066000C901DF91CF911F91089520911503309119
:1006700016032817390771F480911403209113038E
:1006800090E0805C9F4F821B910960E470E00E94C3
:10069000DA0A089580E090E00895209115033091E2
:1006A000160328173907B9F49091130380911403A6
:1006B000981789F0E0911303F0E0E653FD4F808135
:1006C0002091130330E02F5F3F4F2F733327209388
:1006D000130390E008958FEF9FEF0895E0911503C5
:1006E000F0911603E817F90769F4A389B4899C917E
:1006F0008589809589238C93109216031092150397
:1007000081E0089580E00895CF92DF92EF92FF920A
:100710000F931F93CF93DF938C01EB016A30710528
:1007200014F0C0E0D0E060E0F80180810E94BE01DA
:10073000CC0FDD1FC00FD11FEB80FC80F801D280F1
:10074000C180C7E0D0E0FF24B7010C2E02C0759530
:1007500067950A94E2F7617077278C2D0E94BE019D
:1007600061E08D2D0E94BE0160E08D2D0E94BE01D2
:10077000219750F761E0F8018081DF91CF911F91BF
:100780000F91FF90EF90DF90CF900C94BE01611518
:10079000710579F0FB0101900020E9F73197AF0175
:1007A000461B570BDC01ED91FC910280F381E02D9B
:1007B000099480E090E008954F925F926F927F924B
:1007C000EF92FF920F931F93CF93DF93CDB7DEB7D6
:1007D000A1970FB6F894DEBF0FBECDBF7C01FA0122
:1007E000CB0119A2223008F42AE08E010F5D1F4FC1
:1007F000422E512C612C712CBF01A30192010E9449
:10080000B80AF901CA01015011096A3014F4605D97
:1008100001C0695CD8016C93232B242B252B61F735
:10082000B801C7010E94C703A1960FB6F894DEBFB6
:100830000FBECDBFDF91CF911F910F91FF90EF9031
:100840007F906F905F904F9008950F931F93CF9379
:10085000DF93EC010E94C7038C0169E671E0CE01D1
:100860000E94C703800F911FDF91CF911F910F91BD
:1008700008950E94080B1F920F920FB60F92112439
:100880002F933F934F935F936F937F938F939F9398
:10089000AF93BF93EF93FF938BE493E00E9401012A
:1008A000FF91EF91BF91AF919F918F917F916F9148
:1008B0005F914F913F912F910F900FBE0F901F901E
:1008C00018951F920F920FB60F9211242F938F93AA
:1008D0009F93EF93FF93E0915B03F0915C03808122
:1008E000E0916103F091620382FD12C090818091DA
:1008F00064038F5F8F7320916503821751F0E0913D
:100900006403F0E0E55BFC4F958F8093640301C0C6
:100910008081FF91EF919F918F912F910F900FBE4A
:100920000F901F9018951F920F920FB60F921124DF
:100930002F933F938F939F93AF93BF9380910B031C
:1009400090910C03A0910D03B0910E0330910A0316
:1009500023E0230F2D3720F40196A11DB11D05C002
:1009600026E8230F0296A11DB11D20930A03809350
:100970000B0390930C03A0930D03B0930E0380918F
:100980000F0390911003A0911103B09112030196EF
:10099000A11DB11D80930F0390931003A093110329
:1009A000B0931203BF91AF919F918F913F912F917F
:1009B0000F900FBE0F901F9018951F920F920FB6B9
:1009C0000F9211242F933F934F935F936F937F93D5
:1009D0008F939F93AF93BF93EF93FF93E091150392
:1009E000F0911603309709F451C0968DA685B7850E
:1009F000858591FF04C09C91892329F447C09C916F
:100A0000892309F043C0A389B4899C918589809585
:100A100089238C93868997890197F1F7608D718D71
:100A2000A685B785558538E020E0CB010197F1F721
:100A3000822F90E095958795282F4C91452309F0BA
:100A40002068315091F7868D81FD209580911403A7
:100A500090E001968F73992730911303381749F06E
:100A6000A0911403B0E0A653BD4F2C9380931403C0
:100A700003C0868D8160868F828D938D0197F1F7FB
:100A8000A389B4899C918589892B8C93FF91EF91DF
:100A9000BF91AF919F918F917F916F915F914F9196
:100AA0003F912F910F900FBE0F901F901895CF93ED
:100AB000DF9310924E0310924D0388EE93E0A0E076
:100AC000B0E080934F0390935003A0935103B093F1
:100AD00052032EE331E030934C0320934B0325EC7B
:100AE00030E0309358032093570324EC30E03093E8
:100AF0005A032093590320EC30E030935C03209399
:100B00005B0321EC30E030935E0320935D0322EC25
:100B100030E03093600320935F0326EC30E03093A5
:100B20006203209361031092640310926503109294
:100B30006603109267031092EE031092EF03109277
:100B4000F0031092F1031092F2031092F30310924B
:100B5000F4031092F5031092F6031092F70310922B
:100B6000F8031092F9031092FA031092FB0310920B
:100B7000FC031092FD031092DE041092DD048093BA
:100B8000DF049093E004A093E104B093E2048EE4C8
:100B900091E09093DC048093DB041092F2041092B5
:100BA000F1041092F4041092F3041092F6041092DF
:100BB000F5041092F8041092F7046091F9046E7F26
:100BC0006D7F6093F9046695617081E0682780E12C
:100BD0000E94BE0161E080E10E94EE01E0EEF0E0E3
:100BE000E491E093EB04ECECF0E0E491F0E0EE0F44
:100BF000FF1FE855FF4F859194919093ED048093EA
:100C0000EC0460E08FE00E94EE018091F90481FD28
:100C100004C061E08FE00E94BE018FE08093E70492
:100C2000EFEDF0E0E491E093E804EBECF0E0E49128
:100C3000F0E0EE0FFF1FEE54FF4F859194919093DB
:100C4000EA048093E9042AE146E168E182EC94E059
:100C50000E94950220E24CE16EE189EA94E00E9454
:100C6000950282E2E8E1F1E0A0E3B4E001900D92A8
:100C70008A95E1F78AE090E09093530480935204C0
:100C8000C0E3D4E084E0C235D80731F088812296F1
:100C900062E00E94EE01F6CFDF91CF910895789443
:100CA00084B5826084BD84B5816084BD85B5826071
:100CB00085BD85B5816085BD80916E008160809322
:100CC0006E0010928100809181008260809381008B
:100CD000809181008160809381008091800081609B
:100CE000809380008091B10084608093B1008091F6
:100CF000B00081608093B00080917A00846080931E
:100D00007A0080917A00826080937A0080917A00E4
:100D1000816080937A0080917A00806880937A0065
:100D20001092C10010922C0410922D0410922E04E7
:100D300010922F041092EA031092EB031092EC032E
:100D40001092ED0360ED77E080E090E00E944F02AA
:100D50008BE493E090932B0480932A04E0915B034F
:100D6000F0915C03D2E0D083E0915703F0915803F7
:100D70001082E0915903F0915A0380E18083109230
:100D80006303E0915F03F0916003C6E0C083E091EC
:100D90005D03F0915E03808180618083E0915D035B
:100DA000F0915E03808188608083E0915D03F09123
:100DB0005E03808180688083E0915D03F0915E0333
:100DC00080818F7D80830E9489026093EA03709303
:100DD000EB038093EC039093ED036AE571E080915F
:100DE0002A0490912B040E94C7036AE070E080E01F
:100DF00090E00E944F0281E08093FE03E0915B034C
:100E0000F0915C03D083E0915703F0915803108276
:100E1000E0915903F0915A038FEC808310926303A1
:100E2000E0915F03F0916003C083E0915D03F09176
:100E30005E03808180618083E0915D03F0915E03B9
:100E4000808188608083E0915D03F0915E03808102
:100E500080688083E0915D03F0915E0380818F7DE7
:100E600080831092F6041092F5041092F40410920C
:100E7000F3041092F2041092F1048FE796E090933D
:100E8000F8048093F7049091E704963108F057C076
:100E90002EE233E03093F2042093F1042DE736E0A4
:100EA0003093F4042093F30425ED34E03093F604FA
:100EB0002093F50420916800983050F031E09E3086
:100EC00008F430E081E001C0880F3A95EAF701C0EC
:100ED00084E0822B80936800983038F09E3040F098
:100EE000963148F020E030E008C02DE630E005C043
:100EF0002BE630E002C02CE630E03093EF04209384
:100F0000EE04983030F481E001C0880F9A95EAF73A
:100F10000EC0292F30E09E3018F42850310902C04D
:100F20002E50310981E001C0880F2A95EAF780939D
:100F3000F0048091F7049091F8040197F1F7809103
:100F4000F5049091F604892B21F18091150390917D
:100F5000160324E08B3D9207E1F0009711F00E9408
:100F60006E038091F9048E7F8093F904109214032C
:100F7000109213038BED94E0909316038093150366
:100F8000E091EE04F091EF0490818091F004892BC0
:100F9000808334EF432E55245394612C712C4AE006
:100FA000842E912C0E948902672B682B692B41F4B7
:100FB0000E948902623071058105910508F404C11F
:100FC0000E9489026093470370934803809349030A
:100FD00090934A03009143031091440320914503E9
:100FE00030914603601771078207930740F46093BE
:100FF0004303709344038093450390934603009109
:1010000043031091440320914503309146036B0143
:101010007C01C01AD10AE20AF30A970186010A3F4D
:1010200011052105310508F4CFC060934303709387
:10103000440380934503909346034092F6035092F5
:10104000F7036092F8037092F9031092FA0310927A
:10105000FB031092FC031092FD038091EE0390912C
:10106000EF03A091F003B091F1038093F20390930A
:10107000F303A093F403B093F5030E9489026093F5
:10108000EE037093EF038093F0039093F1030E94BB
:1010900089026093EA037093EB038093EC039093CF
:1010A000ED030E9489026B017C016CE671E0809186
:1010B0002A0490912B040E94C7032AE041E050E0EB
:1010C00060E070E080912A0490912B040E94DC0380
:1010D00063E771E080912A0490912B040E94C7037A
:1010E0002AE0B701A60180912A0490912B040E9466
:1010F000DC0365E771E080912A0490912B040E9443
:10110000C7038091EE039091EF03A091F003B0919B
:10111000F103B701A601481B590B6A0B7B0B2AE0B0
:1011200080912A0490912B040E94DC0365E771E012
:1011300080912A0490912B040E94C7034091EE03F2
:101140005091EF036091F0037091F1038091F203ED
:101150009091F303A091F403B091F503481B590B50
:101160006A0B7B0B2AE080912A0490912B040E9449
:10117000DC0367E771E080912A0490912B040E94C0
:10118000C7030E948902AB01BC012AE080912A04B6
:1011900090912B040E94DC0369E771E080912A049E
:1011A00090912B040E94250465E070E080E090E0BF
:1011B0000E944F020E9489026093EE037093EF0336
:1011C0008093F0039093F103C0914103D0914203C7
:1011D000CE01B4010E94DA0A46EF46039001479F10
:1011E000300D1124C20FD31F82EC94E00E948403BF
:1011F000BE0189EA94E00E9484030E948902009162
:10120000390310913A0320913B0330913C0360175E
:1012100071078207930750F40E9489026093390393
:1012200070933A0380933B0390933C03C090520425
:10123000D09053040D2C000CEE08FF088091390368
:1012400090913A03A0913B03B0913C03C80ED91E84
:10125000EA1EFB1E0E9489026C157D058E059F0506
:1012600038F4A7E8B4E0EFEFF0E080E090E06BC086
:101270000E9489026093390370933A0380933B0381
:1012800090933C0307E113E098E2E92E93E0F92EF6
:10129000C6E7D4E020E3C22E24E0D22EB3E0083229
:1012A0001B07F9F25E0121E1A21AB108D5011C92D7
:1012B0001882F601219131916F013327F901EC5623
:1012C000FF4F8491F901E053FF4F2490F901E4545A
:1012D000FF4F3490332079F081110E949501E32D66
:1012E000F0E0EE0FFF1FEE54FF4FA591B491EC918B
:1012F0002E2281E009F480E0D7018D937D01F80171
:101300009081891314C0FE01B2979081911106C09B
:10131000811109C021E0D5012C9305C0913019F449
:10132000813009F4888391E0811190E09083D801A5
:101330008D938D012196B2CF2111FC012D93019641
:101340008131910559F0ED01A2972881EC01C85631
:10135000DB4F28833C912313EFCFF0CFF0930101B3
:10136000E0930001E131F10508F09EC0EC5CFF4F15
:101370000C94EE0A60E871E002C063E971E08BE46E
:1013800093E00E94250461E08BED94E00E94E1026D
:101390008BC066EA71E08BE493E00E94250462E072
:1013A000F3CF69EB71E08BE493E00E94250463E0E6
:1013B000EBCF6CEC71E08BE493E00E94250464E0D9
:1013C000E3CF6FED71E08BE493E00E94250465E0CC
:1013D000DBCF62EF71E08BE493E00E94250466E0CE
:1013E000D3CF65E072E08BE493E00E94250467E0D0
:1013F000CBCF68E172E08BE493E00E94250468E0C3
:10140000C3CF6BE272E08BE493E00E94250469E0B5
:10141000BBCF6EE372E08BE493E00E9425046AE0A8
:10142000B3CF62E572E08BE493E00E9425046BE0A9
:10143000ABCF66E672E08BE493E00E9425046CE09B
:10144000A3CF6AE772E08BE493E00E9425046DE08D
:101450009BCF6EE872E08BE493E00E9425046EE07F
:1014600093CF62EA72E08BE493E00E9425046FE080
:101470008BCF66EB72E08BE493E00E94250460E181
:101480008BED94E00E94E1028EE190E090934203A4
:10149000809341030E94890260933D0370933E0351
:1014A00080933F03909340030E94890200913D0383
:1014B00010913E0320913F0330914003DC01CB01AA
:1014C000801B910BA20BB30B883E9340A105B10585
:1014D00008F441C0C0904103D0904203C114D1042C
:1014E00081F10D2C000CEE08FF08F7FE14C0E0910E
:1014F0004B03F0914C030190F081E02D6DE28BE401
:1015000093E0099544275527BA014C195D096E09E6
:101510007F092AE003C02AE0B701A6018BE493E02B
:101520000E94DC0369E671E08BE493E00E94C7034C
:1015300080914103909142030197909342038093DD
:1015400041030E94890260933D0370933E038093A0
:101550003F03909340030E948B0124CD8EE491E0E1
:101560009093DC048093DB048BED94E00C946E0389
:10157000A1E21A2EAA1BBB1BFD010DC0AA1FBB1F97
:10158000EE1FFF1FA217B307E407F50720F0A21B09
:10159000B30BE40BF50B661F771F881F991F1A9476
:1015A00069F760957095809590959B01AC01BD01A0
:1015B000CF01089597FB072E16F4009407D077FD0E
:1015C00009D00E94F40A07FC05D03EF4909581955D
:1015D0009F4F0895709561957F4F0895EE0FFF1FFF
:1015E0000590F491E02D0994AA1BBB1B51E107C0A3
:1015F000AA1FBB1FA617B70710F0A61BB70B881FA3
:10160000991F5A95A9F780959095BC01CD01089531
:1016100081E090E0F8940C940D0B10E0C3E7D0E06B
:1016200004C0FE010E94EE0A2196C437D107C9F713
:04163000F894FFCF5C
:101634006300C000F900A400B00099009200820089
:10164400F800800098007F000100020003000400FD
:10165400050006000700080009000A000B000C0042
:101664000D000E000F001000110000000000220108
:101674009E00EB00C900DD00690100000000E102EA
:101684009E0035034D03C802E002564D4450565F98
:10169400317C315F564D4450560D0A00564D44502E
:1016A400455F003A323A007C005F564D4450450095
:1016B40070696E2030206A75737420746F75636866
:1016C40065640070696E2031206A75737420746FCC
:1016D40075636865640070696E2032206A7573747E
:1016E40020746F75636865640070696E2033206AC6
:1016F40075737420746F75636865640070696E2017
:1017040034206A75737420746F756368656400703F
:10171400696E2035206A75737420746F756368650B
:10172400640070696E2036206A75737420746F7556
:10173400636865640070696E2037206A757374206D
:10174400746F75636865640070696E2038206A750B
:10175400737420746F75636865640070696E2039F2
:10176400206A75737420746F7563686564007069AA
:101774006E203130206A75737420746F75636865E8
:10178400640070696E203131206A75737420746F3F
:1017940075636865640070696E203132206A757300
:1017A4007420746F75636865640070696E203133EA
:1017B400206A75737420746F75636865640070695A
:1017C4006E203134206A75737420746F7563686594
:1017D400640070696E203135206A75737420746FEB
:1017E40075636865640070696E203136206A7573AC
:0A17F4007420746F7563686564006B
:00000001FF
