:100000000C9463000C948B000C948B000C94F30400
:100010000C94F3040C94F3040C948B000C948B005C
:100020000C948B000C948B000C948B000C948B0024
:100030000C948B000C948B000C948B000C948B0014
:100040000C94A9040C948B000C9477040C94510428
:100050000C948B000C948B000C948B000C948B00F4
:100060000C948B000C948B000000000024002700EF
:100070002A0000000008000201000003040700003D
:1000800000000000000000000000250028002B00F8
:1000900000000000230026002900040404040404D6
:1000A0000404020202020202030303030303010227
:1000B00004081020408001020408102001020408F6
:1000C00010206D052F0A11241FBECFEFD8E0DEBF30
:1000D000CDBF23E0A0E8B1E001C01D92A13BB20773
:1000E000E1F711E0A0E0B1E0E6E3F5E102C0059040
:1000F0000D92A038B107D9F710E0C2E6D0E004C0F5
:100100002197FE010E94830AC136D107C9F70E94D8
:1001100065060C948E0A0C940000CF92DF92EF9249
:10012000FF920F931F93CF93DF936C017A018B01A2
:10013000C0E0D0E0CE15DF0589F0D8016D918D01CA
:10014000D601ED91FC910190F081E02DC601099559
:10015000892B11F47E0102C02196ECCFC701DF91FB
:10016000CF911F910F91FF90EF90DF90CF90089566
:10017000FC01918D828D981761F0828DDF01A80FAF
:10018000B11D5D968C91928D9F5F9F73928F90E0D1
:1001900008958FEF9FEF0895FC01918D828D981740
:1001A00031F0828DE80FF11D858D90E008958FEF7D
:1001B0009FEF0895FC01918D228D892F90E0805C46
:1001C0009F4F821B91098F739927089582E092E0D7
:1001D0000E94DA0021E0892B09F420E0822F0895A3
:1001E000FC01848DDF01A80FB11DA35ABF4F2C91D4
:1001F000848D90E001968F739927848FA689B789A3
:100200002C93A089B1898C9180648C93938D848D7B
:10021000981306C00288F389E02D80818F7D80834A
:100220000895EF92FF920F931F93CF93DF93EC010A
:1002300081E0888F9B8D8C8D981305C0E889F989A2
:10024000808185FD24C0F62E0B8D10E00F5F1F4FBF
:100250000F731127E02E8C8DE8120CC00FB607FC2F
:10026000FACFE889F989808185FFF5CFCE010E9418
:10027000F000F1CF8B8DFE01E80FF11DE35AFF4F27
:10028000F0820B8FEA89FB898081806207C0EE894A
:10029000FF896083E889F98980818064808381E0B7
:1002A00090E0DF91CF911F910F91FF90EF90089513
:1002B000CF93DF93EC01888D8823C9F0EA89FB890D
:1002C000808185FD05C0A889B9898C9186FD0FC004
:1002D0000FB607FCF5CF808185FFF2CFA889B989D9
:1002E0008C9185FFEDCFCE010E94F000E7CFDF912A
:1002F000CF91089580E090E0892B29F00E94E600DC
:1003000081110C9400000895833081F028F481302D
:1003100099F08230A1F008958730A9F08830B9F0C3
:100320008430D1F4809180008F7D03C08091800063
:100330008F7780938000089584B58F7702C084B54D
:100340008F7D84BD08958091B0008F7703C0809128
:10035000B0008F7D8093B00008951F93CF93DF93FB
:10036000282F30E0F901EE58FF4F8491F901E25552
:10037000FF4FD491F901E656FF4FC491CC23C9F049
:10038000162F81110E948401EC2FF0E0EE0FFF1F69
:10039000EA57FF4FA591B4918FB7F894111105C09A
:1003A0009C91ED2FE095E92302C0EC91ED2BEC93AD
:1003B0008FBFDF91CF911F910895CF93DF9390E08E
:1003C000FC01E255FF4F2491FC01E656FF4F84915A
:1003D000882361F190E0880F991FFC01E859FF4FD5
:1003E000C591D491FC01EA57FF4FA591B4916111D9
:1003F00009C09FB7F8948881209582238883EC9167
:100400002E230BC0623061F49FB7F8943881822F9D
:10041000809583238883EC912E2B2C939FBF06C05D
:100420008FB7F894E8812E2B28838FBFDF91CF916F
:1004300008953FB7F8948091C5019091C601A091AD
:10044000C701B091C80126B5A89B05C02F3F19F080
:100450000196A11DB11D3FBFBA2FA92F982F882744
:10046000820F911DA11DB11DBC01CD0142E0660F9F
:10047000771F881F991F4A95D1F708958F929F92F1
:10048000AF92BF92CF92DF92EF92FF926B017C010D
:100490000E9419024B015C01C114D104E104F10472
:1004A000F1F00E941902DC01CB0188199909AA090F
:1004B000BB09883E9340A105B10570F321E0C21A43
:1004C000D108E108F10888EE880E83E0981EA11C8F
:1004D000B11CC114D104E104F10419F7DDCFFF9080
:1004E000EF90DF90CF90BF90AF909F908F90089546
:1004F0002FB7F8946091C1017091C2018091C3013E
:100500009091C4012FBF0895FF920F931F93CF9333
:10051000DF93EC01062F142FF22E86E1E2E0F1E0EA
:10052000DE01139601900D928A95E1F761E0802F2C
:100530000E94DD0161E0812F0E94DD0161E08F2DCD
:100540000E94DD0160E0802F0E94AD0160E0812FFC
:100550000E94AD0160E0812F0E94AD0108831983E4
:10056000FA82DF91CF911F910F91FF900895209112
:10057000CB013091CC012817390771F49091C90152
:100580008091CA01981741F0E091C901F0E0E0586C
:10059000FE4F808190E008958FEF9FEF08950895BA
:1005A0001F93CF93DF93DC015C962D913C915D9777
:1005B0002115310539F481E090E013969C938E93D8
:1005C00012973DC05196ED91FC91529750969C9197
:1005D0005097892F80951FB75E964C915E9741FB8F
:1005E000772770F941FD6095F8944081772311F0E9
:1005F000492B01C048234083E9012197F1F748E0E6
:10060000508160FF02C0592B01C058235083E9017B
:100610002197F1F76695415099F7772321F0908162
:100620008923808303C08081982B90831FBF5C96B1
:100630008D919C915D970197F1F721E030E0C90120
:10064000DF91CF911F9108952091CB013091CC0182
:100650002817390771F48091CA012091C90190E0EF
:10066000805C9F4F821B910960E470E00E945B0AEE
:10067000089580E090E008952091CB013091CC0165
:1006800028173907B9F49091C9018091CA019817C8
:1006900089F0E091C901F0E0E058FE4F808120919F
:1006A000C90130E02F5F3F4F2F7333272093C901DB
:1006B00090E008958FEF9FEF0895E091CB01F091C6
:1006C000CC01E817F90769F4A389B4899C9185895D
:1006D000809589238C931092CC011092CB0181E0FC
:1006E000089580E00895CF92DF92EF92FF920F93EA
:1006F0001F93CF93DF938C01EB016A30710514F0E7
:10070000C0E0D0E060E0F80180810E94AD01CC0F34
:10071000DD1FC00FD11FEB80FC80F801D280C180AB
:10072000C7E0D0E0FF24B7010C2E02C07595679595
:100730000A94E2F7617077278C2D0E94AD0161E089
:100740008D2D0E94AD0160E08D2D0E94AD0121979D
:1007500050F761E0F8018081DF91CF911F910F91F7
:10076000FF90EF90DF90CF900C94AD016115710573
:1007700079F0FB0101900020E9F73197AF01461BAA
:10078000570BDC01ED91FC910280F381E02D09947F
:1007900080E090E008954F925F926F927F92EF9287
:1007A000FF920F931F93CF93DF93CDB7DEB7A1973F
:1007B0000FB6F894DEBF0FBECDBF7C01FA01CB01AE
:1007C00019A2223008F42AE08E010F5D1F4F422E3D
:1007D000512C612C712CBF01A30192010E94390A96
:1007E000F901CA01015011096A3014F4605D01C0B9
:1007F000695CD8016C93232B242B252B61F7B8015E
:10080000C7010E94B603A1960FB6F894DEBF0FBED3
:10081000CDBFDF91CF911F910F91FF90EF907F900F
:100820006F905F904F900895CF92DF92EF92FF927A
:100830000F931F93CF93DF93EC016B01770FEE08BB
:10084000FF08F7FE16C0E881F9810190F081E02DE4
:100850006DE209958C0144275527BA014C195D09B1
:100860006E097F092AE0CE010E94CB03080F191FF1
:1008700006C02AE0B701A6010E94CB038C0169E6FD
:1008800071E0CE010E94B603800F911FDF91CF91DE
:100890001F910F91FF90EF90DF90CF9008950E94ED
:1008A000890A1F920F920FB60F9211242F933F9334
:1008B0004F935F936F937F938F939F93AF93BF9368
:1008C000EF93FF9382E092E00E94F000FF91EF919E
:1008D000BF91AF919F918F917F916F915F914F9158
:1008E0003F912F910F900FBE0F901F9018951F9260
:1008F0000F920FB60F9211242F938F939F93EF9324
:10090000FF93E0911202F09113028081E0911802AE
:10091000F091190282FD12C0908180911B028F5FBD
:100920008F7320911C02821751F0E0911B02F0E0BE
:10093000EE5FFD4F958F80931B0201C08081FF9178
:10094000EF919F918F912F910F900FBE0F901F905D
:1009500018951F920F920FB60F9211242F933F9369
:100960008F939F93AF93BF938091C1019091C201E8
:10097000A091C301B091C4013091C00123E0230FC5
:100980002D3720F40196A11DB11D05C026E8230FC7
:100990000296A11DB11D2093C0018093C1019093C7
:1009A000C201A093C301B093C4018091C50190918D
:1009B000C601A091C701B091C8010196A11DB11D4A
:1009C0008093C5019093C601A093C701B093C8015D
:1009D000BF91AF919F918F913F912F910F900FBE3B
:1009E0000F901F9018951F920F920FB60F9211241F
:1009F0002F933F934F935F936F937F938F939F9327
:100A0000AF93BF93EF93FF93E091CB01F091CC01B3
:100A1000309709F451C0968DA685B785858591FFDD
:100A200004C09C91892329F447C09C91892309F033
:100A300043C0A389B4899C918589809589238C932F
:100A4000868997890197F1F7608D718DA685B785A5
:100A5000558538E020E0CB010197F1F7822F90E037
:100A600095958795282F4C91452309F020683150A2
:100A700091F7868D81FD20958091CA0190E00196C5
:100A80008F7399273091C901381749F0A091CA0195
:100A9000B0E0A058BE4F2C938093CA0103C0868D4E
:100AA0008160868F828D938D0197F1F7A389B48938
:100AB0009C918589892B8C93FF91EF91BF91AF9188
:100AC0009F918F917F916F915F914F913F912F9166
:100AD0000F900FBE0F901F901895CF93DF93109239
:100AE00005021092040288EE93E0A0E0B0E080934B
:100AF000060290930702A0930802B09309022EE326
:100B000031E0309303022093020225EC30E0309371
:100B10000F0220930E0224EC30E030931102209358
:100B2000100220EC30E0309313022093120221ECEB
:100B300030E0309315022093140222EC30E0309321
:100B400017022093160226EC30E03093190220930E
:100B5000180210921B0210921C0210921D02109299
:100B60001E021092A5021092A6021092A7021092E5
:100B7000A8021092A9021092AA021092AB0210923F
:100B8000AC021092AD021092AE021092AF0210921F
:100B9000B0021092B1021092B2021092B3021092FF
:100BA000B40210929503109294038093960390934D
:100BB0009703A0939803B09399038EE491E09093E8
:100BC0009303809392031092A9031092A8031092AA
:100BD000AB031092AA031092AD031092AC031092D3
:100BE000AF031092AE036091B0036E7F6D7F609390
:100BF000B0036695617081E0682780E10E94AD01D5
:100C000061E080E10E94DD01EEEBF0E0E491E09331
:100C1000A203EAEAF0E0E491F0E0EE0FFF1FEA57EA
:100C2000FF4F859194919093A4038093A30360E078
:100C30008FE00E94DD018091B00381FD04C061E07E
:100C40008FE00E94AD018FE080939E03EDEBF0E01A
:100C5000E491E0939F03E9EAF0E0E491F0E0EE0F25
:100C6000FF1FE057FF4F859194919093A1038093CC
:100C7000A0032AE146E168E189E793E00E9484024B
:100C800020E24CE16EE180E693E00E94840282E281
:100C9000E8E1F1E0A7EEB2E001900D928A95E1F76C
:100CA0008AE090E090930A0380930903C7EED2E0B4
:100CB00083E0C930D80731F08881229662E00E9433
:100CC000DD01F6CFDF91CF910895789484B58260ED
:100CD00084BD84B5816084BD85B5826085BD85B5E0
:100CE000816085BD80916E00816080936E0010925E
:100CF00081008091810082608093810080918100D9
:100D00008160809381008091800081608093800069
:100D10008091B10084608093B1008091B0008160C7
:100D20008093B00080917A00846080937A008091F3
:100D30007A00826080937A0080917A00816080934B
:100D40007A0080917A00806880937A001092C100C6
:100D50001092E3021092E4021092E5021092E60271
:100D60001092A1021092A2021092A3021092A40269
:100D700060ED77E080E090E00E943E0282E092E049
:100D80009093E2028093E102E0911202F09113024B
:100D9000D2E0D083E0910E02F0910F021082E09138
:100DA0001002F091110280E1808310921A02E0910A
:100DB0001602F0911702C6E0C083E0911402F09190
:100DC0001502808180618083E0911402F091150208
:100DD000808188608083E0911402F0911502808107
:100DE00080688083E0911402F091150280818F7DEC
:100DF00080830E9478026093A1027093A202809384
:100E0000A3029093A4026AE571E08091E1029091BF
:100E1000E2020E94B6036AE070E080E090E00E9487
:100E20003E0281E08093B502E0911202F09113023C
:100E3000D083E0910E02F0910F021082E091100237
:100E4000F09111028FEC808310921A02E091160249
:100E5000F0911702C083E0911402F0911502808195
:100E600080618083E0911402F09115028081886096
:100E70008083E0911402F091150280818068808364
:100E8000E0911402F091150280818F7D8083109291
:100E9000AD031092AC031092AB031092AA03109210
:100EA000A9031092A8038FE796E09093AF03809375
:100EB000AE0390919E03963108F057C02EE233E0C6
:100EC0003093A9032093A8032DE736E03093AB03BA
:100ED0002093AA0325ED34E03093AD032093AC03B7
:100EE00020916800983050F031E09E3008F430E0F6
:100EF00081E001C0880F3A95EAF701C084E0822BB7
:100F000080936800983038F09E3040F0963148F079
:100F100020E030E008C02DE630E005C02BE630E0F0
:100F200002C02CE630E03093A6032093A50398304E
:100F300030F481E001C0880F9A95EAF70EC0292F9E
:100F400030E09E3018F42850310902C02E5031098B
:100F500081E001C0880F2A95EAF78093A70380916A
:100F6000AE039091AF030197F1F78091AC0390919C
:100F7000AD03892B21F18091CB019091CC0123E02D
:100F800082399207E1F0009711F00E945D03809191
:100F9000B0038E7F8093B0031092CA011092C901F2
:100FA00082E993E09093CC018093CB01E091A5037B
:100FB000F091A60390818091A703892B808334EF61
:100FC000432E55245394612C712C4AE0842E912C8D
:100FD0000E947802672B682B692B41F40E947802EB
:100FE000623071058105910508F40AC10E947802FA
:100FF0006093FE017093FF018093000290930102C1
:101000000091FA011091FB012091FC013091FD014A
:10101000601771078207930740F46093FA01709399
:10102000FB018093FC019093FD010091FA01109166
:10103000FB012091FC013091FD016B017C01C01A84
:10104000D10AE20AF30A970186010A3F1105210538
:10105000310508F4D5C06093FA017093FB018093C9
:10106000FC019093FD014092AD025092AE0260925D
:10107000AF027092B0021092B1021092B2021092BE
:10108000B3021092B4028091A5029091A602A091A1
:10109000A702B091A8028093A9029093AA02A093FC
:1010A000AB02B093AC020E9478026093A5027093E9
:1010B000A6028093A7029093A8020E9478026093F0
:1010C000A1027093A2028093A3029093A4020E94B3
:1010D00078026B017C016CE671E08091E1029091F5
:1010E000E2020E94B6032AE041E050E060E070E0D6
:1010F0008091E1029091E2020E94CB0363E771E0EC
:101100008091E1029091E2020E94B6032AE0B701C9
:10111000A6018091E1029091E2020E94CB0365E773
:1011200071E08091E1029091E2020E94B603809109
:10113000A5029091A602A091A702B091A802B701C2
:10114000A601481B590B6A0B7B0B2AE08091E10238
:101150009091E2020E94CB0365E771E08091E10289
:101160009091E2020E94B6034091A5025091A6021E
:101170006091A7027091A8028091A9029091AA02A1
:10118000A091AB02B091AC02481B590B6A0B7B0BD0
:101190002AE08091E1029091E2020E94CB0367E78E
:1011A00071E08091E1029091E2020E94B6030E94F8
:1011B0007802AB01BC012AE08091E1029091E20249
:1011C0000E94CB03C091E102D091E20269E771E095
:1011D000CE010E94B60369E671E0CE010E94B6031B
:1011E00065E070E080E090E00E943E020E9478029C
:1011F0006093A5027093A6028093A7029093A80221
:101200002091F3013091F401C901B4010E945B0AFD
:1012100046EF4603E001479FD00D1124C20FD31FB4
:1012200089E793E00E947303BE0180E693E00E9489
:1012300073030E9478020091EF011091F001209158
:10124000F1013091F201601771078207930750F4A2
:101250000E9478026093EF017093F0018093F10196
:101260009093F201C0900903D0900A030D2C000C5A
:10127000EE08FF088091EF019091F001A091F1013B
:10128000B091F201C80ED91EEA1EFB1E0E94780220
:101290006C157D058E059F0538F4EEE3F3E0CFEF86
:1012A000D0E080E090E06CC00E9478026093EF0193
:1012B0007093F0018093F1019093F2010DEC11E035
:1012C0009EEDE92E91E0F92ECDE2D3E027EEC22E7D
:1012D00022E0D22EB1E00E3D1B07F9F25E0121E1C2
:1012E000A21AB108D5011C921882F6012191319100
:1012F0006F013327F901EE58FF4F8491F901E25550
:10130000FF4F3490F901E656FF4F2490222081F0E0
:1013100081110E948401E22DF0E0EE0FFF1FE057E3
:10132000FF4FA591B491EC919E2F932181E009F498
:1013300080E0D7018D937D01F8019081891314C05D
:10134000FE01B2979081911106C0811109C021E080
:10135000D5012C9305C0913019F4813009F48883AC
:1013600091E0811190E09083D8018D938D012196B9
:10137000B1CF2111EC01219301968131910559F0F2
:10138000DF0192972C91DC01A15BBC4F2C93308143
:101390002313EFCFF0CFD0930101C0930001C031F0
:1013A000D10599F4E1E0E093F9018EE190E09093AA
:1013B000F4018093F3010E9478026093F501709329
:1013C000F6018093F7019093F8018091F901882349
:1013D00069F0BE0182E092E00E9414046091000175
:1013E0007091010182E993E00E9414040E94780246
:1013F0000091F5011091F6012091F7013091F8016B
:10140000DC01CB01801B910BA20BB30B883E9340F8
:10141000A105B10508F16091F3017091F401611526
:10142000710519F41092F9010DC082E092E00E945A
:1014300014048091F3019091F40101979093F401C9
:101440008093F3010E9478026093F5017093F60196
:101450008093F7019093F8010E947A01B9CD8EE450
:1014600091E0909393038093920382E993E00C942C
:101470005D03A1E21A2EAA1BBB1BFD010DC0AA1F12
:10148000BB1FEE1FFF1FA217B307E407F50720F0ED
:10149000A21BB30BE40BF50B661F771F881F991F68
:1014A0001A9469F760957095809590959B01AC01B1
:1014B000BD01CF01089597FB072E16F4009407D0C5
:1014C00077FD09D00E946F0A07FC05D03EF4909585
:1014D00081959F4F0895709561957F4F0895AA1B40
:1014E000BB1B51E107C0AA1FBB1FA617B70710F00F
:1014F000A61BB70B881F991F5A95A9F78095909541
:10150000BC01CD010895EE0FFF1F0590F491E02D71
:10151000099481E090E0F8940C948E0A10E0C2E601
:10152000D0E004C0FE010E94830A2196C336D10791
:06153000C9F7F894FFCF9B
:101536006300C000F900A400B00099009200820088
:10154600F800800098007F000100020003000400FC
:10155600050006000700080009000A000B000C0041
:101566000D000E000F001000110000000000110118
:101576008D00DA00B800CC00580100000000D0024F
:101586008D0024033C03B702CF02564D4450565FEC
:10159600317C315F564D4450560D0A00564D44502D
:1015A600455F003A323A007C005F564D4450450094
:00000001FF
