:1000000015C1000043C1000041C100003FC1000014
:100010003DC100003BC1000039C1000037C10000F4
:1000200035C10000E3C50000E1C50000DFC50000E8
:100030002DC100002BC1000029C1000027C1000014
:1000400025C1000023C1000021C100001FC1000024
:100050001DC100001BC1000019C100007DC50000CA
:1000600015C1000043C5000018C500000FC1000005
:100070000DC100000BC1000009C1000007C1000054
:1000800005C1000003C1000001C10000FFC0000065
:10009000FDC00000FBC00000F9C00000F7C0000078
:1000A000F5C00000F3C00000F1C00000EFC0000088
:1000B000EDC00000EBC00000E9C00000E7C0000098
:1000C000E5C00000E3C00000E1C00000DFC00000A8
:1000D000DDC00000DBC00000D9C00000D7C00000B8
:1000E000D5C000008402870276027A028002BE0236
:1000F0008B028F02950299029D02A302A702AB0216
:10010000BE02B102B502B90200002100240027009E
:100110002A002D0030003300010100000401070116
:100120000A0100000A0B02090C0D0E080703040166
:1001300000000000000000000000000000000000BF
:10014000000000000000000000000000000012118C
:10015000100000000000000000000000000000008F
:100160000000000000000000000022002500280020
:100170002B002E00310034000201000005010801AF
:100180000B01000020002300260029002C002F0076
:100190003200000100000301060109010505050503
:1001A000070508080808020202020A0A08080404EF
:1001B000040401010101010101010303030303031D
:1001C0000303040707070C0C0C0C0C0C0C0C0202AC
:1001D000020206060606060606060B0B0B0B0B0BA9
:1001E0000B0B010210202008081020401020408036
:1001F00002010201080402010102040810204080EB
:100200008040201008040201800402018040201078
:1002100008040201080402010102040810204080C1
:10022000010204081020408074065E0B11241FBEDA
:10023000CFEFD1E2DEBFCDBF00E00CBF24E0A0E8ED
:10024000B2E001C01D92A13BB207E1F712E0A0E0CD
:10025000B2E0EAE9F7E100E00BBF02C007900D92BF
:10026000A038B107D9F711E0C5E1D1E000E006C040
:1002700021970109802FFE010E949C0BC431D107F8
:1002800080E00807A9F721D60C94BC0BB9CECF9219
:10029000DF92EF92FF920F931F93CF93DF936C0146
:1002A0007A018B01C0E0D0E0CE15DF0589F0D801DE
:1002B0006D918D01D601ED91FC910190F081E02DC1
:1002C000C6011995892B11F47E0102C02196ECCF4D
:1002D000C701DF91CF911F910F91FF90EF90DF90B9
:1002E000CF900895FC01918D828D981761F0828DD9
:1002F000DF01A80FB11D5D968C91928D9F5F9F735A
:10030000928F90E008958FEF9FEF0895FC01918DFB
:10031000828D981731F0828DE80FF11D858D90E068
:1003200008958FEF9FEF0895FC01918D228D892F05
:1003300090E0805C9F4F821B91098F7399270895ED
:1003400082E093E0F1DF21E0892B09F420E0822FA5
:100350000895FC01848DDF01A80FB11DA35ABF4F82
:100360002C91848D90E001968F739927848FA689B4
:10037000B7892C93A089B1898C9180648C93938DDB
:10038000848D981306C00288F389E02D80818F7DCB
:1003900080830895EF92FF920F931F93CF93DF9383
:1003A000EC0181E0888F9B8D8C8D981305C0E889C6
:1003B000F989808185FD23C0F62E0B8D10E00F5F3B
:1003C0001F4F0F731127E02E8C8DE8120BC00FB654
:1003D00007FCFACFE889F989808185FFF5CFCE0146
:1003E000B8DFF2CF8B8DFE01E80FF11DE35AFF4F0E
:1003F000F0820B8FEA89FB898081806207C0EE89D9
:10040000FF896083E889F98980818064808381E045
:1004100090E0DF91CF911F910F91FF90EF900895A1
:10042000CF93DF93EC01888D8823C1F0EA89FB89A3
:10043000808185FD05C0A889B9898C9186FD0EC093
:100440000FB607FCF5CF808185FFF2CFA889B98967
:100450008C9185FFEDCFCE017CDFE8CFDF91CF918E
:10046000089580E090E0892B19F06ADF811125C0A2
:1004700080E090E0892B41F080E090E0892B21F032
:100480000E94000081111CC080E090E0892B41F0A7
:1004900080E090E0892B21F00E940000811113C0C0
:1004A00080E090E0892BA1F080E090E0892B81F042
:1004B0000E94000081110AC008950E940000D8CF58
:1004C0000E940000E1CF0E940000EACF0C940000DF
:1004D000089590E0FC013197E231F10508F04EC03B
:1004E0008827EE58FF4F8F4F0C949C0B8091800013
:1004F0008F7703C0809180008F7D80938000089566
:1005000080918000877FF9CF84B58F7702C084B552
:100510008F7D84BD08958091B0008F7703C0809156
:10052000B0008F7D8093B0000895809190008F7708
:1005300007C0809190008F7D03C080919000877FDD
:100540008093900008958091A0008F7707C08091DC
:10055000A0008F7D03C08091A000877F8093A000C2
:100560000895809120018F7707C0809120018F7DB1
:1005700003C080912001877F8093200108951F93FD
:10058000CF93DF93282F30E0F901EE5DFE4F849189
:10059000F901EE51FE4FD491F901E456FE4FC4919A
:1005A000CC23C1F0162F811194DFEC2FF0E0EE0F79
:1005B000FF1FE859FE4FA591B4918FB7F894111120
:1005C00005C09C91ED2FE095E92302C0EC91ED2B45
:1005D000EC938FBFDF91CF911F910895CF93DF935D
:1005E00090E0FC01EE51FE4F2491FC01E456FE4FD9
:1005F0008491882361F190E0880F991FFC01E85FE6
:10060000FE4FC591D491FC01E859FE4FA591B491DC
:10061000611109C09FB7F89488812095822388834F
:10062000EC912E230BC0623061F49FB7F8943881AF
:10063000822F809583238883EC912E2B2C939FBF50
:1006400006C08FB7F894E8812E2B28838FBFDF91E7
:10065000CF9108953FB7F8948091C5029091C6025A
:10066000A091C702B091C80226B5A89B05C02F3F34
:1006700019F00196A11DB11D3FBFBA2FA92F982FC8
:100680008827820F911DA11DB11DBC01CD0142E043
:10069000660F771F881F991F4A95D1F708958F928B
:1006A0009F92AF92BF92CF92DF92EF92FF926B0137
:1006B0007C01D0DF4B015C01C114D104E104F104E1
:1006C000E9F0C8DFDC01CB0188199909AA09BB0947
:1006D000883E9340A105B10578F321E0C21AD10804
:1006E000E108F10888EE880E83E0981EA11CB11C79
:1006F000C114D104E104F10421F7DECFFF90EF90A3
:10070000DF90CF90BF90AF909F908F9008952FB7BC
:10071000F8946091C1027091C2028091C3029091DD
:10072000C4022FBF0895FF920F931F93CF93DF93BF
:10073000EC01062F142FF22E86E1E2E0F2E0DE015A
:10074000139601900D928A95E1F761E0802F46DFC4
:1007500061E0812F43DF61E08F2D40DF60E0802F7B
:100760000EDF60E0812F0BDF60E0812F08DF088360
:100770001983FA82DF91CF911F910F91FF90089515
:100780002091CB023091CC022817390771F4909157
:10079000C9028091CA02981741F0E091C902F0E0C5
:1007A000E058FD4F808190E008958FEF9FEF08950E
:1007B00008951F93CF93DF93DC015C962D913C91BC
:1007C0005D972115310539F481E090E013969C93F3
:1007D0008E9312973DC05196ED91FC915297509691
:1007E0009C915097892F80951FB75E964C915E978C
:1007F00041FB772770F941FD6095F894408177239C
:1008000011F0492B01C048234083E9012197F1F7FA
:1008100048E0508160FF02C0592B01C0582350832B
:10082000E9012197F1F76695415099F7772321F077
:1008300090818923808303C08081982B90831FBF80
:100840005C968D919C915D970197F1F721E030E0E6
:10085000C901DF91CF911F9108952091CB02309172
:10086000CC022817390761F48091CA022091C9028D
:1008700090E0805C9F4F821B910960E470E049C763
:1008800080E090E008952091CB023091CC022817AF
:100890003907B9F49091C9028091CA02981789F07A
:1008A000E091C902F0E0E058FD4F80812091C9023B
:1008B00030E02F5F3F4F2F7333272093C90290E022
:1008C00008958FEF9FEF0895E091CB02F091CC0255
:1008D000E817F90769F4A389B4899C918589809503
:1008E00089238C931092CC021092CB0281E0089560
:1008F00080E00895CF92DF92EF92FF920F931F93C3
:10090000CF93DF938C01EB016A30710514F0C0E0E6
:10091000D0E060E0F801808132DECC0FDD1FC00F37
:10092000D11FEB80FC80F801D280C180C7E0D0E00D
:10093000FF24B7010C2E02C0759567950A94E2F763
:10094000617077278C2D1BDE61E08D2D18DE60E055
:100950008D2D15DE219768F761E0F8018081DF9128
:10096000CF911F910F91FF90EF90DF90CF9007CE26
:100970006115710579F0FB0101900020E9F73197CD
:10098000AF01461B570BDC01ED91FC910280F38116
:10099000E02D199480E090E008954F925F926F925D
:1009A0007F92EF92FF920F931F93CF93DF93CDB778
:1009B000DEB7A1970FB6F894DEBF0FBECDBF7C01A6
:1009C000FA01CB0119A2223008F42AE08E010F5D52
:1009D0001F4F422E512C612C712CBF01A30192019B
:1009E00076D6F901CA01015011096A3014F4605D2C
:1009F00001C0695CD8016C93232B242B252B69F74C
:100A0000B801C701B5DFA1960FB6F894DEBF0FBEDF
:100A1000CDBFDF91CF911F910F91FF90EF907F900D
:100A20006F905F904F900895CF92DF92EF92FF9278
:100A30000F931F93CF93DF93EC016B01770FEE08B9
:100A4000FF08F7FE15C0E881F9810190F081E02DE3
:100A50006DE219958C0144275527BA014C195D099F
:100A60006E097F092AE0CE0198DF080F191F05C023
:100A70002AE0B701A60191DF8C0169E672E0CE01A0
:100A800077DF800F911FDF91CF911F910F91FF9022
:100A9000EF90DF90CF9008956BD61F920F920FB614
:100AA0000F9211240BB60F922F933F934F935F93A6
:100AB0006F937F938F939F93AF93BF93EF93FF9326
:100AC00082E093E046DCFF91EF91BF91AF919F915F
:100AD0008F917F916F915F914F913F912F910F90E7
:100AE0000BBE0F900FBE0F901F9018951F920F9284
:100AF0000FB60F9211240BB60F922F938F939F93E3
:100B0000EF93FF93E0911203F09113038081E09142
:100B10001803F091190382FD12C0908180911B038C
:100B20008F5F8F7320911C03821751F0E0911B039C
:100B3000F0E0EE5FFC4F958F80931B0301C0808136
:100B4000FF91EF919F918F912F910F900BBE0F907E
:100B50000FBE0F901F9018951F920F920FB60F9215
:100B600011242F933F938F939F93AF93BF938091C3
:100B7000C1029091C202A091C302B091C40230910F
:100B8000C00223E0230F2D3720F40196A11DB11DD3
:100B900005C026E8230F0296A11DB11D2093C002B7
:100BA0008093C1029093C202A093C302B093C40287
:100BB0008091C5029091C602A091C702B091C8026F
:100BC0000196A11DB11D8093C5029093C602A0930A
:100BD000C702B093C802BF91AF919F918F913F918F
:100BE0002F910F900FBE0F901F9018951F920F928C
:100BF0000FB60F9211240BB60F922F933F934F9382
:100C00005F936F937F938F939F93AF93BF93EF9374
:100C1000FF93E091CB02F091CC02309709F451C0E0
:100C2000968DA685B785858591FF04C09C91892303
:100C300029F447C09C91892309F043C0A389B48952
:100C40009C918589809589238C93868997890197C2
:100C5000F1F7608D718DA685B785558538E020E068
:100C6000CB010197F1F7822F90E095958795282F7A
:100C70004C91452309F02068315091F7868D81FD14
:100C800020958091CA0290E001968F739927309148
:100C9000C902381749F0A091CA02B0E0A058BD4F70
:100CA0002C938093CA0203C0868D8160868F828DCB
:100CB000938D0197F1F7A389B4899C918589892B3C
:100CC0008C93FF91EF91BF91AF919F918F917F9105
:100CD0006F915F914F913F912F910F900BBE0F90AD
:100CE0000FBE0F901F901895CF93DF9310920503BE
:100CF0001092040388EE93E0A0E0B0E08093060336
:100D000090930703A0930803B09309032EE332E006
:100D1000309303032093020325EC30E030930F035C
:100D200020930E0324EC30E0309311032093100342
:100D300020EC30E0309313032093120321EC30E0D9
:100D4000309315032093140322EC30E03093170303
:100D50002093160326EC30E03093190320931803F8
:100D600010921B0310921C0310921D0310921E037D
:100D70001092A5031092A6031092A7031092A80345
:100D80001092A9031092AA031092AB031092AC0325
:100D90001092AD031092AE031092AF031092B00305
:100DA0001092B1031092B2031092B3031092B403E5
:100DB0001092950410929404809396049093970453
:100DC000A0939804B09399048EE492E090939304D6
:100DD000809392041092A9041092A8041092AB047C
:100DE0001092AA041092AD041092AC041092AF04B9
:100DF0001092AE046091B0046E7F6D7F6093B0047A
:100E00006695617081E0682780E1B9DB61E080E18F
:100E1000E5DBE2EFF1E0E491E093A204ECEAF1E03B
:100E2000E491F0E0EE0FFF1FE859FE4F8591949199
:100E30009093A4048093A30460E08FE0CFDB8091C3
:100E4000B00481FD03C061E08FE099DB8FE0809307
:100E50009E04E1EFF1E0E491E0939F04EBEAF1E01E
:100E6000E491F0E0EE0FFF1FEE57FE4F8591949155
:100E70009093A1048093A0042AE146E168E189E708
:100E800094E051DC20E24CE16EE180E694E04BDC42
:100E900082E2E8E1F2E0A7EEB3E001900D928A95DC
:100EA000E1F78AE090E090930A0480930904C7EE8A
:100EB000D3E084E0C930D80729F08881229662E027
:100EC0008DDBF7CFDF91CF910895789484B5826060
:100ED00084BD84B5816084BD85B5826085BD85B5DE
:100EE000816085BD80916E00816080936E0010925C
:100EF00081008091810082608093810080918100D7
:100F00008160809381008091800081608093800067
:100F10008091B10084608093B1008091B0008160C5
:100F20008093B000809191008260809391008091C5
:100F30009100816080939100809190008160809306
:100F400090008091A10082608093A1008091A10017
:100F500081608093A1008091A00081608093A000B7
:100F60008091210182608093210180912101816023
:100F700080932101809120018160809320018091E4
:100F80007A00846080937A0080917A0082608093F6
:100F90007A0080917A00816080937A0080917A0053
:100FA000806880937A001092C1001092E30310923F
:100FB000E4031092E5031092E6031092A10310924D
:100FC000A2031092A3031092A40360ED77E080E0E7
:100FD00090E065DB82E093E09093E2038093E1038D
:100FE000E0911203F0911303D2E0D083E0910E035D
:100FF000F0910F031082E0911003F091110380E152
:10100000808310921A03E0911603F0911703C6E053
:10101000C083E0911403F091150380818061808387
:10102000E0911403F0911503808188608083E09142
:101030001403F0911503808180688083E09114038C
:10104000F091150380818F7D808361DB6093A10324
:101050007093A2038093A3039093A4036AE572E0C4
:101060008091E1039091E20383DC6AE070E080E02C
:1010700090E015DB81E08093B503E0911203F091DD
:101080001303D083E0910E03F0910F031082E091DF
:101090001003F09111038FEC808310921A03E091FA
:1010A0001603F0911703C083E0911403F091150328
:1010B000808180618083E0911403F0911503808129
:1010C00088608083E0911403F0911503808180682B
:1010D0008083E0911403F091150380818F7D8083DC
:1010E0001092AD041092AC041092AB041092AA04BA
:1010F0001092A9041092A8048FE796E09093AF0491
:101100008093AE0480919E0496EF980F943048F03F
:101110002EEC280F243028F022EC280F283008F07D
:101120006EC02EE233E03093A9042093A8042DE78B
:1011300036E03093AB042093AA0425ED34E03093DD
:10114000AD042093AC04943060F02EEC280F2430D2
:1011500040F022EC280F283008F4A8C2A0E0B0E04C
:10116000A7C2A8E6B0E0E8E6F0E02081943018F0ED
:101170008E53883010F081E001C084E0822B8C9384
:1011800080919E0496EF980F943058F02EEC280F23
:10119000243038F022EC280F283030F020E030E006
:1011A00005C02BE630E002C02DE630E03093A60407
:1011B0002093A504943010F49AEF0BC0823381F091
:1011C000833381F0843381F092EC980F983070F47F
:1011D00092EC980F81E001C0880F9A95EAF707C05A
:1011E00088E005C084E003C082E001C081E0809314
:1011F000A7048091AE049091AF040197F1F780911C
:10120000AC049091AD04892B19F18091CB0290919F
:10121000CC0224E082399207D9F0009709F054DB20
:101220008091B0048E7F8093B0041092CA02109215
:10123000C90282E994E09093CC028093CB02E091C2
:10124000A504F091A60490818091A704892B808346
:1012500034EF432E55245394612C712C4AE0842E94
:10126000912C55DA672B682B692B39F450DA6230F0
:1012700071058105910508F4F7C049DA6093FE0213
:101280007093FF0280930003909301030091FA0290
:101290001091FB022091FC023091FD026017710752
:1012A0008207930740F46093FA027093FB028093E5
:1012B000FC029093FD020091FA021091FB02209132
:1012C000FC023091FD026B017C01C01AD10AE20AD6
:1012D000F30A970186010A3F11052105310508F43B
:1012E000C3C06093FA027093FB028093FC02909358
:1012F000FD024092AD035092AE036092AF03709234
:10130000B0031092B1031092B2031092B303109283
:10131000B4038091A5039091A603A091A703B09177
:10132000A8038093A9039093AA03A093AB03B0935F
:10133000AC03EDD96093A5037093A6038093A70334
:101340009093A803E4D96093A1037093A2038093C0
:10135000A3039093A403DBD96B017C016CE672E0DC
:101360008091E1039091E20303DB2AE041E050E049
:1013700060E070E08091E1039091E2030EDB63E7AF
:1013800072E08091E1039091E203F2DA2AE0B70182
:10139000A6018091E1039091E203FFDA65E772E034
:1013A0008091E1039091E203E3DA8091A5039091AB
:1013B000A603A091A703B091A803B701A601481BFB
:1013C000590B6A0B7B0B2AE08091E1039091E203B9
:1013D000E4DA65E772E08091E1039091E203C8DA14
:1013E0004091A5035091A6036091A7037091A803B3
:1013F0008091A9039091AA03A091AB03B091AC0393
:10140000481B590B6A0B7B0B2AE08091E1039091FA
:10141000E203C3DA67E772E08091E1039091E203AF
:10142000A7DA75D9AB01BC012AE08091E103909164
:10143000E203B3DAC091E103D091E20369E772E01D
:10144000CE0196DA69E672E0CE0192DA65E070E0EC
:1014500080E090E024D95BD96093A5037093A60344
:101460008093A7039093A8032091F3023091F40294
:10147000C901B4014ED146EF4603E001479FD00DAC
:101480001124C20FD31F89E794E034DABE0180E64D
:1014900094E030DA3CD90091EF021091F0022091F3
:1014A000F1023091F202601771078207930748F446
:1014B0002ED96093EF027093F0028093F102909323
:1014C000F202C0900904D0900A040D2C000CEE0822
:1014D000FF088091EF029091F002A091F102B0918B
:1014E000F202C80ED91EEA1EFB1E11D96C157D052D
:1014F0008E059F0538F4EEE3F4E0CFEFD0E080E016
:1015000090E06BC004D96093EF027093F002809377
:10151000F1029093F2020DEC12E09EEDE92E92E0C2
:10152000F92ECDE2D4E027EEC22E23E0D22EB2E097
:101530000E3D1B0701F35E0121E1A21AB108D5019E
:101540001C921882F601219131916F013327F90124
:10155000EE5DFE4F8491F901EE51FE4F3490F9019A
:10156000E456FE4F2490222081F081110E946902EE
:10157000E22DF0E0EE0FFF1FEE57FE4FA591B49164
:10158000EC919E2F932181E009F480E0D7018D93A7
:101590007D01F8019081891314C0FE01B2979081FA
:1015A000911106C0811109C021E0D5012C9305C01D
:1015B000913019F4813009F4888391E0811190E031
:1015C0009083D8018D938D012196B1CF2111EC012B
:1015D000219301968131910559F0DF0192972C9169
:1015E000DC01A15BBB4F2C9330812313EFCFF0CFF5
:1015F000D0930102C0930002C031D10591F4E1E023
:10160000E093F9028EE190E09093F4028093F3026C
:101610007ED86093F5027093F6028093F702909360
:10162000F8028091F902882359F0BE0182E093E02C
:10163000FBD9609100027091010282E994E0F4D933
:1016400066D80091F5021091F6022091F7023091D0
:10165000F802DC01CB01801B910BA20BB30B883E7F
:101660009340A105B105F8F06091F3027091F40286
:101670006115710519F41092F9020CC082E093E033
:10168000D3D98091F3029091F40201979093F402E0
:101690008093F3023CD86093F5027093F602809336
:1016A000F7029093F8020E943102DBCDA8E6B0E089
:1016B000283008F458CDE0E0F0E057CD8EE492E019
:1016C000909393048093920482E994E0FDC8A1E290
:1016D0001A2EAA1BBB1BFD010DC0AA1FBB1FEE1FAC
:1016E000FF1FA217B307E407F50720F0A21BB30BF7
:1016F000E40BF50B661F771F881F991F1A9469F773
:1017000060957095809590959B01AC01BD01CF01CE
:10171000089597FB072E16F4009406D077FD08D0A5
:1017200013D007FC05D03EF4909581959F4F089506
:10173000709561957F4F0895EE0FFF1F881F8BBF37
:101740000790F691E02D1994AA1BBB1B51E107C02D
:10175000AA1FBB1FA617B70710F0A61BB70B881F41
:10176000991F5A95A9F780959095BC01CD010895D0
:1017700081E090E0F89400C011E0C5E1D1E000E024
:1017800005C0802FFE01D8DF2196011DC631D1078B
:0A17900080E00807B1F7F894FFCFDE
:10179A006300C000F900A400B00099009200820022
:1017AA00F800800098007F00010002000300040096
:1017BA00050006000700080009000A000B000C00DB
:1017CA000D000E000F001000110000000000CA01F9
:1017DA004701940172018601100200000000D9033A
:1017EA0047012D044304C003D803564D4450565FA5
:1017FA00317C315F564D4450560D0A00564D4450C7
:10180A00455F003A323A007C005F564D445045002D
:00000001FF
